:020000040000FA
:10000000001D0020951D0000AF6B0000F51D0000D5
:10001000F51D0000F51D0000F51D0000F51D000098
:10002000000000000000000000000000F11B0000C4
:10003000F51D000000000000991B0000296B000066
:10004000551D0000551D0000551D0000551D0000E8
:10005000551D0000551D0000551D0000551D0000D8
:10006000551D0000551D0000551D0000551D0000C8
:10007000551D0000551D0000551D0000551D0000B8
:10008000551D0000551D0000551D0000551D0000A8
:10009000551D0000551D0000551D0000551D000098
:1000A000551D0000551D0000551D0000551D000088
:1000B000551D0000551D0000551D0000551D000078
:1000C000551D0000551D0000551D0000551D000068
:1000D000551D0000551D0000551D0000551D000058
:1000E000551D0000551D0000551D0000551D000048
:1000F000551D0000551D0000551D0000551D000038
:10010000551D0000551D0000551D0000551D000027
:10011000551D0000551D0000551D0000551D000017
:10012000551D0000551D0000551D0000551D000007
:10013000551D0000551D0000551D0000551D0000F7
:10014000551D00000000000000000000000000003D
:10015000000000000000000000000000000000009F
:10016000000000000000000000000000000000008F
:10017000000000000000000000000000000000007F
:10018000000000000000000000000000000000006F
:10019000000000000000000000000000000000005F
:1001A000000000000000000000000000000000004F
:1001B000000000000000000000000000000000003F
:1001C000000000000000000000000000000000002F
:1001D000000000000000000000000000000000001F
:1001E000000000000000000000000000000000000F
:1001F00000000000000000000000000000000000FF
:10020000DEE61E284CBBCE8F025B00003C000000E7
:10021000008000000100000000000000000000005D
:10022000FFFF02910000000000000000000000003D
:1002300000000000000000000000000053B94AB9AF
:10024000002908BF00281CBF4FF0FF314FF0FF30DE
:1002500000F070B9ADF1080C6DE904CE00F006F8BD
:10026000DDF804E0DDE9022304B070472DE9F04732
:10027000089E0D4604468A46002B7FD18A421746C7
:1002800041D9B2FA82F24AB1C2F1200105FA02F371
:100290009740944020FA01F141EA030A4FEA1748D7
:1002A0004FEA144C1FFA87F9BAFBF8FE08FB1EA3AD
:1002B0000EFB09F14CEA0343994206D9FB1802D21E
:1002C000994200F224810EF1FF3E591AA3B2B1FB0C
:1002D000F8F008FB101100FB09F943EA0144A145BD
:1002E00005D93C1902D2A14500F20E810138A4EBD8
:1002F000090440EA0E4000211EB1D4400023C6E9A3
:100300000043BDE8F08702B9FFDEB2FA82F2002AAC
:100310004FD1CB1B4FEA174E1FFA87F80121250C4E
:10032000B3FBFEFC0EFB1C302B4608FB0CF945EA28
:100330000045A9450AD97D192CBF01230023A945F1
:1003400002D9002B00F0D9800CF1FF3CA5EB090588
:10035000A3B2B5FBFEF00EFB105508FB00F843EA14
:100360000544A04505D93C1902D2A04500F2C98038
:100370000138A4EB080440EA0C40BDE78B4208D9E1
:10038000002E00F0B1800021C6E900050846BDE856
:10039000F087B3FA83F1002946D1AB42C0F0A780C1
:1003A000824240F2A4800846002EAAD0C6E9004A44
:1003B000A7E7C2F12000974001FA02F34FEA174E77
:1003C000C14024FA00F51FFA87F894401D43B1FBA1
:1003D000FEF02B0C0EFB101100FB08FC43EA01435E
:1003E0009C4509D9FB182CBF012100219C4502D94D
:1003F000002900F095800138A3EB0C03ADB2B3FBEC
:10040000FEF10EFB113301FB08FC45EA0345AC4548
:1004100005D97D1902D2AC4500F289800139A5EBDE
:100420000C0341EA00417AE7C1F120048B4002FA53
:1004300001F705FA01FCE24020FA04F8E54000FA71
:1004400001FE134348EA0C024FEA13484FEA124CEC
:100450001FFA83F9B5FBF8FA08FB1A550AFB09F0F5
:100460004CEA054C60450AD913EB0C0C2CBF012556
:100470000025604501D9002D55D00AF1FF3AACEBBB
:10048000000C92B2BCFBF8F008FB10CC00FB09F9A1
:1004900042EA0C4CE14505D913EB0C0C01D2E145C5
:1004A0003BD8013840EA0A40ACEB090CA0FB0789B5
:1004B000CC4545464A4602D306D1C64504D201384A
:1004C000B8EB070569EB03022EB3BEEB05036CEB3B
:1004D000020C23FA01F20CFA04F42CFA01F30021C5
:1004E0001443C6E900430CE73146304609E7841A55
:1004F00065EB030301209A4656E7ACF1020C3D443C
:1005000024E702383C4434E702383C44EFE6AEF1DD
:10051000020E3B44D9E63146F3E602389C44C1E77B
:1005200002383B4468E7AAF1020A9C44A7E7023973
:100530003D4474E7704700BF2DE9E04F2746A046D1
:10054000A146A246A346A446A2B02DEC000A84F31D
:10055000008825462646A4473DEC000A22B0BDE8A7
:10056000E08F00000B6801330B60014B1B681847DC
:100570000000002007B50B46002102460191034808
:1005800001A900F0EBF803B05DF804FB650500007D
:100590002DE9F84FB0F81890044619F00808934672
:1005A0000DD001290CBF49F0100949F02009A0F82D
:1005B00018908BF31188BFF36F8FBDE8F88F09F0A7
:1005C0000709022907D1204606F0F3F80028F0D0E9
:1005D0000128238B50D16769218B002F15DA2568FC
:1005E00021F00701C4E9008841F0010121830026C0
:1005F000218B01F0070ACA4502D0A368002B5CD109
:100600000DB9002E74D0002358E001F007035A1FE3
:10061000012A20D821F00701062B256889B2C4E9F8
:1006200000880CD1002D2B4638BF00232BB1628BE4
:100630001B6801326283002BF8D141F00201204691
:10064000218306F0B6F806460028D1D0238B43F06C
:1006500020032383CBE7042B0CD121F0070189B2BF
:100660002046218306F0A5F805460028BFD041F0BA
:10067000200121830025BAE7032809D1226923F04C
:100680000703166843F00603002523832F46AFE7D0
:10069000042806D1226923F00703566843F00403B7
:1006A000F2E7052806D1226923F00703966843F094
:1006B0000503E9E700252E46E8E7012341F008019C
:1006C00021838BF31188BFF36F8F03BB002D33D1D0
:1006D00016B120462049B0474FF02003EFF3118BAD
:1006E00083F31188BFF36F8F238B23F008032383D9
:1006F000238BDA0628D5012123F010032383B4F8D5
:10070000189009F0070900297FF45BAF51E7A16851
:100710000029DBD00B68002B38BF002399465246D6
:100720003B462046D1F804B0D847B9F1000FCDD0F0
:100730004946D9F80030EEE729463B465246204666
:100740002D6806F052F8C1E713F020011EBF23F018
:10075000200302212383D2E7176800002DE9F04F20
:100760008B4692461C46002591B002909AF80000F4
:1007700008B928465EE325280AF1010707D0594643
:10078000029B98470028C0F25583013510E21822D9
:1007900000210AA806F07FFA9AF80130252B78D0BC
:1007A00000229446164696461046394617F8013BF5
:1007B0002B2B00F09D8000F29480202B00F09B807A
:1007C000232B00F09A8028B19DF8300040F00400FF
:1007D0008DF83000BEF1000F05D09DF8300040F0DC
:1007E00008008DF830002EB19DF8300040F0100068
:1007F0008DF83000BCF1000F05D09DF8300040F0BE
:1008000020008DF830002AB19DF8302042F04002DF
:100810008DF830209DF8302002F04400442803D1A8
:100820006FF386128DF830209DF830202A2B42F08D
:1008300080028DF830207BD19DF831204B1C42F096
:1008400001028DF831201A782E2A0CBF01210021D7
:100850009DF8312061F341028DF8312074D15A782E
:100860002A2A6AD000210A260133184610F8012BE3
:10087000A2F13007092F40F28E809DF830200E91B2
:10088000C2F3400040EAD17161F341028DF830209B
:100890005AE00AF102078DF833309DF83130D9075C
:1008A00040F1498154F8049BB9F1000F07DA9DF833
:1008B0003020C9F1000942F004028DF830205A07B7
:1008C00040F1428154F8048BB8F1000F80F241816D
:1008D0009DF831306FF341038DF831304FF0FF3820
:1008E00037E12D2B0CD0302B7FF46DAF01225CE76C
:1008F0004FF0010E59E7012657E74FF0010C54E77E
:10090000012052E733460CFB0202303A1E4616F82D
:10091000010BA0F13007092FF4D9994293D09DF82B
:1009200030100D92D20F62F341018DF830108AE73A
:100930000B4600224FF00A0CE8E79DF83120023305
:1009400042F004028DF831201F4617F8012B6C2A63
:1009500041D025D8682A2BD06A2A46D04C2A4CD0C0
:100960001F4617F8012B9DF83130782A8DF8332077
:1009700000F2D980572A4DD8412A03D0453A022A9D
:1009800000F2D18004229DF8323062F302038DF828
:10099000323001239EE006FB01210346303964E733
:1009A000742A26D07A2ADBD106229DF831300DE058
:1009B0005A78682A9DF8312006D1012161F3C602D8
:1009C0008DF831209F1CCCE71346022262F3C60348
:1009D0008DF83130C5E75A786C2A9DF8312001D165
:1009E0000421EBE713460322F0E705229DF831309E
:1009F000ECE707229DF83130E8E7BDF8303023F40A
:100A0000F04323F0020343F4804343F00203ADF8C4
:100A10003030A6E7A2F15801202900F2848001A01D
:100A200050F821F0E90A0000270B0000270B000016
:100A3000270B0000270B0000270B0000270B0000EE
:100A4000270B0000270B000085090000270B000082
:100A5000E90A0000A90A00008509000085090000D4
:100A600085090000270B0000A90A0000270B0000E1
:100A7000270B0000270B0000270B0000F10A0000E5
:100A8000E90A00000D0B0000270B0000270B0000F7
:100A90000D0B0000270B0000E90A0000270B0000E7
:100AA000270B0000E90A000001209DF8321003F036
:100AB000780360F30201402B8DF8321002BF9DF8DD
:100AC000301041F001018DF83010632A31D1003B24
:100AD00018BF01239DF83020C2F340010B4363F39C
:100AE00041028DF83020D8E602209DF83210DEE772
:100AF00003219DF8322003F07803A3F1400061F355
:100B0000020243428DF832204341E3E703219DF87E
:100B1000322013F0780F61F3020214BF0123002387
:100B20008DF83220D6E79DF8303043F001038DF880
:100B300030300023CEE79DF93020002AACBF4FF0C3
:100B4000FF39DDF83490BAE69B077FF5C7AEDDF8D4
:100B500038800023CDE90D339DF832309DF83120E7
:100B600003F00703012BC2F3C30236D1D31E042BBB
:100B700020D8DFE803F00307071F1F0054F8040B19
:100B8000C11704E0073424F00704F4E80201CDE9BA
:100B90000A019DF8303013F0030654D03B4652460C
:100BA0005946029805F005FF0028C0F2438105442C
:100BB000BA46DBE554F8040B012A4FEAE071CDE9AF
:100BC0000A0105D19DF828300A9300230B93E0E732
:100BD000022ADED1BDF92800D2E7022B23D1D31E91
:100BE000042B13D8DFE803F0030A0A1212000021D5
:100BF0002068231D0A900B911C46CAE7073424F095
:100C00000703F3E80201CDE90A01F5E754F8043BD4
:100C1000012A0A934FF000030B93D3D0022AB8D1D4
:100C2000BDF82830D0E7042B07D1073424F007049F
:100C3000F4E80201CDE90A01ABE7032B04BF54F845
:100C4000043B0A93A5E79DF833007828B0D86228C2
:100C500022D825283FF493AD5828A9D1DDE90A010F
:100C60000DF1260300930CAA04AB05F057FE824653
:100C7000B8F1000F0DF126000CDB9DF83020A0EB41
:100C80000A036FF3861298458DF8302002D9A8EB3D
:100C900003030D9380463DE06338152888D801A1F1
:100CA00051F820F0250D0000890D0000B10B000067
:100CB000B10B0000B10B0000B10B0000890D00006A
:100CC000B10B0000B10B0000B10B0000B10B000034
:100CD000E70D0000B50D0000B90D0000B10B0000DC
:100CE000B10B0000FD0C0000B10B0000B50D0000C1
:100CF000B10B0000B10B0000B50D0000B8F1000F02
:100D0000DDF828A00ADB4146504605F089FF0026A1
:100D10000AEB0008BAF1000F0CD149E7504605F084
:100D200078FFF4E700260A9B0DF111088DF81030CA
:100D30000DF1100AA8EB0A0306B101339DF8322029
:100D4000D0066BD5023352060D9948BF0E9A0B445C
:100D500048BF9B18B9F1000F79DD9DF83020A9EB51
:100D60000309C2F380030393530770D4500664D57C
:100D700046B159463046029B984700285ADB039BF0
:100D800001351E46302359E01E0711D413F010061A
:100D900018BF2026DDE90A23002A73F10001BFF6FF
:100DA0005DAF524263EB43032D26CDE90A2355E79D
:100DB0002B26EFE7002651E70A9848B30DF12603EA
:100DC0000093002104AB0CAA05F0A8FDBDF8323059
:100DD000824603F0EF0343F4F04343F01003002690
:100DE000ADF8323044E70A9B072A3FF6E1AEDFE870
:100DF00002F00D04060D08080D0D1D70D8E61D80CB
:100E0000D6E62846E917C3E90001D1E61D60CFE622
:100E1000DFF8C4800646A8F1050A8BE7110748BF32
:100E2000013390E7184603935946029B98470028E0
:100E3000039B04DA11B0BDE8F08F20234D444A46ED
:100E4000002AA5EB090109F1FF39EBDC0D4636B1AB
:100E500059463046029B98470028EBDB01359DF848
:100E60003230D90601D41A0706D559463020029BE4
:100E700098470028DEDB01359DF83230DB0607D5C8
:100E800059469DF83300029B98470028D2DB013574
:100E90000D9E2E44731B002B16DC434652465946CA
:100EA000029805F086FD0028C4DB0544A944A9EB9F
:100EB0000503002B7FF77CAE59462020029B984704
:100EC0000028B7DB0135F2E759463020029B9847EE
:100ED0000028AFDB0135DDE718770000044608B5D0
:100EE0004FF02002EFF3118382F31188BFF36F8F6D
:100EF00005F01CFE204601F09FF8034805F04CFC6D
:100F000000F0F0FEFCE700BF197700004FF0200270
:100F1000EFF3118382F31188BFF36F8F0121044A2D
:100F2000C2F8401583F31188BFF36F8F002070471C
:100F30000090035020B1034B800143F00103184798
:100F4000704700BFB073000084B004AB03E9070032
:100F50009DF80430062B07D10122044BC3F800256D
:100F6000BFF34F8F20BFFDE704B070470040005033
:100F7000F8B505464FF02003EFF3118683F311888F
:100F8000BFF36F8F0B4B1C68002C38BF00245CB183
:100F9000094FD4E90132002D08BF13460BB1387850
:100FA00098472468002CF4D186F31188BFF36F8F23
:100FB000F8BD00BF00020020080200201FB50F4B43
:100FC0001A68BAB901221A600D4A01AB07CA83E850
:100FD00007000C4A4AB193E8070005F001FD002024
:100FE00005B05DF804EBFFF7C3BF82F31188BFF3D0
:100FF0006F8FF4E705B05DF804FB00BF040000202C
:1010000008020020E1690000F0B589B06E461B4C73
:1010100001460546304605F0EEFC96E8070084E8F8
:101020000700207840B30021154B19606B1C0ED0CF
:1010300017464FF40046002112480023E6FB070143
:10104000114AFFF7FBF80121281A06F004F802F014
:1010500075F90120FFF78CFF94E8070005AB83E8E2
:1010600007000A4A1AB193E80700FFF76DFFFFF780
:10107000A5FF02F01BFA207809B0F0BD080200209D
:10108000040000203F420F0040420F00490F0000C3
:101090000E4A70B5841A05460C200E464021A31056
:1010A0000B4C5C43E4B200FB0420084405F0B1FCA7
:1010B000011E05DB074B03EBC4046368984700215E
:1010C00028463346BDE87040184700BF280200207C
:1010D000B76DDBB6CC7300002DE9F0410C25104E46
:1010E0008046841BA3100F4C0F465C43E4B265435B
:1010F00005F140004021304405F0A4FC011E09DB4D
:10110000094A7319C3E90E27084B53F83430BDE878
:10111000F041184740463B46BDE8F041184700BF44
:1011200028020020B76DDBB6A76A0000CC73000070
:1011300070B5002201210446052000F087FD05203E
:1011400000F066FD0F4801F0AFFC0F4B984215D13F
:1011500005F033FE26690D49304605F079FB00287D
:101160000BDB012535642469084904F11C0005F0F6
:101170006FFB002801DB0020E56470BD6FF0040008
:10118000FBE700BFC51100000000AD0BDC730000E1
:1011900001460C2300224B43084870B5C418403365
:1011A000D4E90E561844A26305F06AFC2DB132460C
:1011B0002B46BDE870400248184770BD2802002049
:1011C000F070000010B1012804D07047034B1B6C75
:1011D0005B0701D1FFF7DCBF704700BF280200208A
:1011E00008B54FF02003EFF3118183F31188BFF3AB
:1011F0006F8F124A136843F0020013F0010310606E
:101200000CD04FF05022D2F80C34D2F80C2413F04A
:10121000010303D00A4805F033FC012381F3118850
:10122000BFF36F8F23B1BDE808400020FFF7B0BFC8
:101230000120BDE8084001F047BC00BF7802002053
:1012400068020020074BD3E8EF2F22F00201C3E829
:10125000E01F0028F7D1D30702D4012001F066BCBB
:10126000704700BF780200201FB500220123CDE99E
:1012700002236B46084ACDF800D0CDF804D005F023
:1012800038FC002805DB4FF480420023684601F05B
:10129000D1FF05B05DF804FBC56A00002DE9F843F5
:1012A000012206463949D1E8EF3FC1E8E02F002886
:1012B000F9D133B9364937484B60CB608A6005F0C5
:1012C000DAFA731E012B32D8012E07D14FF05023CA
:1012D000D3F81C3403F00303022B28D005F0D8FD0B
:1012E000044618B92C4B1B78002B47D14FF0200334
:1012F000EFF3118583F31188BFF36F8F0124274F1C
:10130000DFF89C80DFF89C904FF05022D2F8183420
:10131000D2F81824D2030CD503F00303022B01D01A
:10132000012E06D124B385F31188BFF36F8FBDE87A
:10133000F883C4B1284600F0E3FC4FF05022D2F805
:101340001835DBB2012BDFD139680029DCD0002150
:10135000396039680221C2F818152022C8F88021A6
:10136000C9F80030D0E70021212002F077FAE4E745
:101370004FF050230222C3F80423D8E74FF0502344
:1013800002220546C3F80823B9E700BF7C0200200B
:1013900018020020440200203E1300200451005097
:1013A00000E100E008500050044A1368C81A20F019
:1013B0007F400344136002F0B5BB00BF90020020E1
:1013C0002DE9F0474FF480374FF00009860000F117
:1013D000500406F15026A40006F58036A4B204F1AC
:1013E0005024D6F84035DFF86C8021F07F4504F5B5
:1013F00080348740D8F804A5A3EB0A0323F07F4389
:101400002AF07F42012BC6F8402502D1132005F0B7
:1014100040FE0AF10202AB1A23F07F43B3F5000F3E
:1014200088BF1546C4F80090236825F07F43C8F8AC
:101430004473C6F84035D8F804359A4506D0EB1AFF
:10144000023B23F07F43B3F5000F01D8BDE8F087DE
:101450002B46CFE700500150F8B50026134C144F2F
:1014600000202568134B06B1F8BDD3F80423D2033E
:10147000FAD53A68002AF7D03E603A684FF48032D5
:10148000C3F84823D3F84015D3F804250126531A8E
:1014900023F07F43B3F5000F88BF11461DB162688A
:1014A0002060A847DCE72560DEE700BF840200205B
:1014B000405101500050015038B500244FF48033A2
:1014C0004FF400120D4D0121C5F80845C5F804334D
:1014D0000B4B1520C3F88021224600F0B7FB1520E6
:1014E00000F096FB0123074A02201360064A2B6096
:1014F0001360FFF7D3FE204638BD00BF00500150F7
:1015000000E100E0085001508C020020134BB0F1C4
:10151000FF3F08BF1846013800281CDD9842A8BFCD
:1015200018460F4BD3F804250E4B1968521A12F4C3
:10153000000F18BF002022F07F4301330A4A034402
:101540000A48106000205060044A934294BFC918B2
:101550008918FFF735BF0020E3E700BFFFFF7F00DA
:10156000005001509002002084020020A9130000C6
:10157000044BD3F80405044B1B68C01A20F07F40CD
:10158000704700BF005001509002002000280DDB82
:101590000122430900F01F0002FA00F0044A203340
:1015A00042F82300BFF34F8FBFF36F8F704700BF28
:1015B00000E100E0F7B500281C4614BF4FF40053CB
:1015C0004FF400438A42154640D90A46204F00286E
:1015D00039D002F5E07647F82640561CB54230D1A6
:1015E0005D431C484B43009505F0D6F81A4B14F0A8
:1015F000100F1A491A4808BF194605F0CDF814F023
:10160000040F14BF72212D21164805F0C5F814F0FF
:10161000020F14BF77212D21124805F0BDF814F0F8
:10162000010F0CBF2D2178210E4805F0B5F86C2173
:101630000C4805F0B1F80C4803B0BDE8F04005F0E7
:10164000ABB83246C3E702F5C076C4E703B0F0BDDD
:101650000030005061770000557700004C770000A3
:10166000E07800007B770000C97A000030B54FF4C5
:10167000803485B04FF480312548264D05F08CF834
:101680002168254805F088F82968244805F084F881
:1016900010220021684605F0FEFA23686846009390
:1016A000029400F02FFD012000F05CFD002000F00E
:1016B00045FD002000F06AFD0121002000F084FDBE
:1016C00000F078FD16482C6805F066F80820FFF752
:1016D0005DFF144A24F00104D2F82038002B07DA09
:1016E00003F00303023B012B9CBF0F4BC2F82038D1
:1016F0000121082005F022FABFF34F8FBFF36F8F4F
:10170000640864002046214622462346FEF714FF63
:101710007E7700000400010095770000AA770000A2
:10172000C877000000300050000100802DE9F84328
:10173000494805F031F8002140F21713084602220B
:10174000FFF738FF40F20713202202210020FFF7A5
:1017500031FF424805F020F8414B424AC3F3C431FF
:10176000C3F30E03C3F50043C3F34313C2F80015DC
:10177000C2F80435D2F80015D2F804253A485201CF
:1017800005F00AF8354805F007F800F083F801463F
:1017900010B1364805F000F80024354804F0FCFF8D
:1017A00040F21713082200210120FFF703FF2D4DFF
:1017B00040F20713202208210120FFF7FBFE2748F3
:1017C00004F0EAFFC5F880442A4804F0E5FF2A4EF9
:1017D000C5F8C044294F2A4DDFF8B48095F805902C
:1017E0002146B9F1000F14BF33463B4640462A68F4
:1017F00004F0D2FFB9F1000F0CD12248013404F0FB
:10180000CBFF1C2C05F10805E8D11448BDE8F843CE
:1018100004F0C2BF95F8049095F90400FFF7B6FEF6
:101820004FEA890303F1A04303F54053B9F1310FA7
:10183000D3F8002806D0002A07DA02F00302023AA1
:10184000012A02D8104AC3F800280121484605F0B1
:1018500075F90E48D2E700BFFE770000C97A000094
:10186000E07F00000030005022780000687800001F
:1018700098780000BA780000F377000059770000EC
:10188000E8730000E378000000010080EA780000BF
:10189000D678000000220248114602F01FBA00BFAD
:1018A0009402002070B50C461546064650B96FF0FC
:1018B0001500BDE87040714672467346F4468EF3DB
:1018C000008C7447002AF2D005F081F90128EED08F
:1018D0000C4B9C420BD92A1903F61D239A4209D8B6
:1018E0002A462146304605F0CBF90020E1E7064BB9
:1018F0009C4203D9054B2A199A42F1D94FF0FF3087
:10190000D7E700BF0302FF002F01FF003801FF00EF
:1019100070B506460D46144605F059F901280DD05C
:10192000204605F054F9012808D023462A463146BE
:10193000084802F007FA2368AB4201D06FF01500A7
:10194000BDE87040714672467346F4468EF3008CD3
:10195000744700BF940200202DE9F04F81460D46E8
:1019600085B081B305F033F901282CD1284605F064
:101970002EF9012827D04FF00008DFF85CB0DFF81F
:101980005CA001AF5BF8046B9AE807004E4487E85F
:1019900007000C223946304605F04BF9044600B9E1
:1019A000A6B908F10108B8F1050FEBD16FF00D04ED
:1019B000204605B0BDE8F04F714672467346F446C6
:1019C0008EF3008C74476FF01504F1E73C2231462A
:1019D000284605F055F9EBE7C87400008073000055
:1019E000014802F073B900BFDC74000008B5B0B163
:1019F0004368042B0DD100220368D3E8EF1F0129AF
:101A000003D1C3E8E02F0028F7D1074808BF1046EC
:101A100008BD3BB1006801F0A7FB0020F8E76FF4B8
:101A2000E040F5E70148F3E7E98FFFFFEA8FFFFFAA
:101A300010B5044618B90D4B0D485B6898476168AE
:101A400008290DD031F004030AD011F0020108D0AA
:101A50002146084805F0F3F9002323600023636062
:101A600010BD1422206805F016F9F7E734000020B5
:101A7000FB7900005004002010B5044618B9164B3D
:101A800016485B6898476368042B23D0082B21D045
:101A9000CBB92368BBB94FF0FF324FF0FF3321467B
:101AA0000F4801F00FFA08B923681BB90A4B0D481B
:101AB0005B68984714220021206805F0ECF8636801
:101AC00043F002036360206805F0EFF9636843F0B8
:101AD0000103636010BD00BF34000020FB790000EB
:101AE00050040020217A000008B5E8B14368042BB7
:101AF0000CD101220368D3E8EF1F002903D1C3E80A
:101B0000E02F0028F7D10BD1002008BD53B10068A9
:101B10004FF0FF324FF0FF3301F0A8FA0028F3D066
:101B20000348F2E70348F0E76FF4E040EDE700BF59
:101B3000E98FFFFFEA8FFFFF08B506494023142213
:101B4000054805F061F9BDE808400449044802F081
:101B500071B900BF6C04002050040020F474000030
:101B6000E4740000094A0A4993680968586799674C
:101B700008494B6843F080534B60002383F311887E
:101B8000BFF36F8F9368986F704700BFFC09002008
:101B90008875000000ED00E013498A684FF03000BE
:101BA0001044EFF3098C80E8F01F202080F31188A7
:101BB000BFF36F8F0D4F4FF000664A6A8A603E6038
:101BC000506F0023536780F3118802F1300090E8D2
:101BD000F01F8CF3098802F1000004B504F0DDFF6A
:101BE000BDE8044070470000FC09002004ED00E05F
:101BF0001EF0040F0CBFEFF30880EFF3098081693A
:101C000011F8021C0229FFD001B504F0CCFF01BD80
:101C100043B2002B08DB012200F01F0002FA00F0A3
:101C2000024A5B0942F82300704700BF00E100E070
:101C3000054B420953F82220012300F01F0003FA4C
:101C400000F01040704700BF00E100E043B2002BFD
:101C500001F10101ACBF03F16043064B4FEA4111B2
:101C6000C9B2ABBF03F5614300F00F0083F8001366
:101C70001954704714ED00E042F8203C009B0B49DA
:101C800042F81C3C019B21F0010142F8183C029BE8
:101C900042F8081C42F8143C4FF0807342F8043CB0
:101CA0000023203A02654367704700BF09690000BE
:101CB000084B9860436E83F30B88104681F30988C4
:101CC000002163B681F31188BFF36F8F00220023D8
:101CD00004F01AFEFC090020014910220A60704736
:101CE00010ED00E072B6404080F31188BFF36F8FB3
:101CF000BFF34F8F30BF62B6BFF36F8F704700BF27
:101D000072B6494081F3118820BF80F3118862B612
:101D1000704700BF30BFFFF7FDBF00BF0B4A08B5DB
:101D20000B4B22F07F029A60BFF34F8FBFF36F8F90
:101D3000D3F8882022F47002C3F8882000F0E6FF70
:101D400001F0FEFD00F0C0F901F004F80000000011
:101D500000ED00E001B572B60B4A106A00281EBF04
:101D60000021116205F09AF862B6EFF30580A0F148
:101D700010004FEAC0000549014409C99847BDE871
:101D80000140034908470000FC0900205071000091
:101D90001D200000002080F31488BFF36F8F002007
:101DA00080F30A8880F30B8805F078F900200E494B
:101DB0000860BFF34F8F0D4880F3088800F05EF98C
:101DC000202080F311880A484FF40061401880F306
:101DD0000988EFF314800221084380F31488BFF3CD
:101DE0006F8FFFF79BFF000094ED00E0001D0020C7
:101DF000401E0020EFF30880EFF3098101B5724621
:101E000000F074F801BD00BF0E4B9A6A9A6A9A6A94
:101E1000920708D55A6B9A6A120604D518B19A6AC5
:101E200022F080029A620020064B9A6A9A6A9A6AA5
:101E3000D20658BF9A6A9A6A42F0FF029A62087004
:101E4000704700BF00ED00E00D4B9A6A9A6A9A6AEB
:101E5000920508D59A6B9A6A120404D518B19A6A49
:101E600022F400429A620020054B9A6A9A6AD205CF
:101E700058BF9A6A9A6A42F47F429A620870704721
:101E800000ED00E0094B9A6A9A6A986A9A6A9A6A1F
:101E90009A6A9A6A9A6A10F480106FEA02426FEAAC
:101EA000124218BF02209A62704700BF00ED00E0A6
:101EB0000D4B9A695A695A69D0070FD45A6991072C
:101EC0000CD45A69520709D45A69100706D45A69C2
:101ED000D10603D45A69920658BF5A695A6942F02A
:101EE000FF025A61704700BFD0ED00E0F0B5414BF2
:101EF0000E465B6800258BB0C3F3080385F3118899
:101F0000BFF36F8F02F07F41B1F17F4F1CD112F010
:101F1000010118D0540602F0080165D482F00402D1
:101F2000C2F3800561B1EFF389860022033B8DF88F
:101F30000720042B49D8DFE803F0094A4E3F46004A
:101F4000EFF38886F1E70D462E46EEE7294BDA6A75
:101F500092073AD4DC6A14F0804408D028331B7806
:101F6000EBB101200DF10701FFF74EFF04469DF88C
:101F7000073093B92022314602A804F081FE099B64
:101F80006DB3C3F3080222B96FEA53236FEA432308
:101F90000993204602A904F004FE0BB0F0BD164BD5
:101FA0001B782BB101200DF10701FFF74DFFDDE795
:101FB000124B1F88BFB217B1FFF764FFD6E7104B73
:101FC0005C69002CD3D0FFF773FF0024CFE700201B
:101FD0000DF10701C8E700200DF10701E5E723F443
:101FE000FF7323F00103D3E700299ED106460125A4
:101FF0009BE700BF00ED00E029ED00E02AED00E0E6
:10200000D0ED00E0044B5A6942F010025A615A695F
:1020100042F480625A61704700ED00E0044B996819
:10202000586A884203D003494FF080520A607047D3
:10203000FC09002004ED00E0BFF34F8F0549064B7B
:10204000CA6802F4E0621343CB60BFF34F8F00BF56
:10205000FDE700BF00ED00E00400FA05002318468C
:10206000054A1168C1F307218B4200D17047936084
:1020700010610133F8E700BF90ED00E010B572B6D3
:10208000002484F31388FFF7E9FF0E4A2346114624
:102090004FF0FF3403F120000133102B42F82040B1
:1020A000F8D100234FF0FF3003F160020133102B11
:1020B00041F82200F8D162B6BFF34F8FBFF36F8FA4
:1020C00010BD00BF00E100E0002320210348C2183A
:1020D0000133412B82F80013F9D1704700E100E091
:1020E000064B9B68834207D1EFF3058323B1044A73
:1020F000536843F08053536001F0D0BBFC090020CB
:1021000000ED00E082680C4B9A60036883F38888D6
:10211000436883F38988027B02F00101EFF3948323
:1021200023F00303920748BF43F0020309B143F0D1
:10213000010383F39488704700ED02E0084AD368F6
:1021400048B123F400531B041B0C43F0BF6343F45A
:102150000033D36070479BB243F40053F5E700BFF0
:1021600000ED00E0084AD36840B19BB243F48043DD
:1021700043F0BF6343F40033D360704723F48043DC
:102180001B041B0CF4E700BF00ED00E0084AD36815
:1021900040B19BB243F0080343F0BF6343F4003304
:1021A000D360704723F008031B041B0CF4E700BF47
:1021B00000ED00E0034AD2F88C3043F44063C2F8EB
:1021C0008C30704700ED00E0084B1A6818B142F0FF
:1021D00001021A60704722F001021A601A6811B1F8
:1021E00042F00202F5E722F00202F2E7D0ED00E051
:1021F0001FB5094C094A23460121094800F0DCF8C3
:1022000000230393074B0121E41A01A801930294D0
:1022100000F0DCF804B010BD000001200000002038
:1022200008750000F800002010B50B680C7A23F048
:102230001F0204F01F031A43CB68640923F01F0335
:10224000044943EA440343F001038860CA600B6118
:1022500010BD00BF90ED00E02DE9F04F8846144618
:1022600006464FF000094A4D85B0C14505DA77684A
:10227000BFB31F2F05D86FF01504204605B0BDE889
:10228000F08FFB06F7D1D6F800A01AF01F0FF2D19D
:10229000504604F093FC834607EB0A00013804F033
:1022A0008DFC8345E7D11BF1160FE4D0631E5B451F
:1022B000E1DBC5F808B0E968C5F808B02F6921F07E
:1022C0001F01D6E900321A44994247F01F0702F174
:1022D000FF3A1CD1574508D131465FFA8BF004F024
:1022E0007BFC09F101090C36BFE73146C5F808B09F
:1022F000EB6822F01F0203F01F031A43EA60E0B20A
:1023000004F06AFC10F1160FB5D0441CE9E7013B5C
:102310005745E0B223F01F03C5F808B006D12A697B
:10232000314602F01F0213432B61E9E7296901F0EE
:102330001F010B432B61314604F04EFC10F1160FC8
:1023400099D0C5F808B0EA689DF80830013F62F3FB
:1023500004038DF808302B699DF808205B0863F3AF
:1023600047128DF80820D6E900321344009323F079
:102370001F033B44441CA3EB0A0AE0B22AF01F03EC
:102380000F2803933FF677AF6946FFF74DFFBCE791
:1023900090ED00E00522034B5A60BFF34F8FBFF36F
:1023A0006F8F704790ED00E0BFF35F8F0022014B0D
:1023B0005A60704790ED00E010B5034C2278FFF7AB
:1023C0004BFF207010BD00BF3C1300202DE9F74FDC
:1023D000264D8A4606464FF00008AB46244FD045AE
:1023E0001BDAD6F80490B9F1000F39D031680846ED
:1023F000019104F0E3FB0199044609EB0100013867
:1024000004F0DCFB84424FF014021A4B08D06FF04A
:10241000150302FB08F84BF8083003B0BDE8F08F55
:1024200014F1160F2C60F8D01978A142F5DD02FBEB
:1024300008B0BC60BC60FC6800F10801007B64F37C
:102440000400087138690C79400860F347140C7176
:10245000F96821F01F016960396921F01F012961C4
:1024600008F1010814350C36B9E700BF6C090020EB
:1024700090ED00E03C13002038B50E4C2568102D7F
:1024800014D8FFF791FF00200B4B0C4A1A638542CA
:1024900005D10B4B1D70FFF77DFF002038BD616833
:1024A00001EB0011FFF7C0FE0130F0E74FF0FF3005
:1024B000F4E700BF1475000090ED00E0AAFF4400AF
:1024C0003C13002000F01F02054800EB8200D0F80A
:1024D000003223F4403343EA0143C0F8003270472E
:1024E0000025845008B5094B1A786AB901210D20DE
:1024F00019700521FFF7AAFB0D20FFF789FB4FF0AC
:102500000042034BC3F80423002008BD3D13002004
:1025100000D00050F7B50E46416806F01F05097A55
:10252000B2F5A03F076945EA41150AD15C4805F0BC
:102530001F01803150F82110C80707D56FF08500C2
:1025400093E0B2F5005FF96800F091800121F8682E
:10255000B1400143F96001217869B140B2F5A03F73
:102560000CBF0843884378610020BA69B3F5C02FD7
:102570000CBF0A438A43BA613A69B3F5802F0CBF96
:10258000114322EA0101474A3961D2F80433DBB230
:1025900000F5A27152F82110C1F304218D426BD1D4
:1025A00023FA00F1C90767D5830003F1A04303F5BF
:1025B0005043D3F8101521F00101C3F81015012381
:1025C0008340C2F80833C0B200F026FB2846002141
:1025D000FFF778FFF868F04010F0010045D0786907
:1025E000F04010F001044ED0BB690DF10700F3403C
:1025F000DB0757BF3969032621FA06F606F0010604
:102600005CBFC6F10206F6B200F028FB264B9842EA
:1026100036D100209DF807102D028B0003F1A04356
:1026200003F55043D3F8102505F4F85522F447324A
:1026300022F44072C3F81025D3F8102515438A0000
:1026400002F1A04202F5514245EA0646C3F8106580
:1026500010601268D3F8102542F00102C3F810256B
:102660000123104A8B40C2F8043303B0F0BD0120AF
:10267000B04021EA00016DE70130082888D1A5E7C4
:102680006FF01200F1E739692846F14001F00101CD
:10269000C1F10301C9B2FFF715FF2046E5E700BF0E
:1026A0000025845000D000500000AD0B284B70B5C1
:1026B00046682848134083423BD00DD8062B15D0DE
:1026C00005D89BB1022B36D06FF0150030E0B3F582
:1026D000801FF9D1012309E01F4883422DD0B3F5B3
:1026E000A00F2CD0B3F5800FEED10223D0064CBF43
:1026F0000325C2F3401582F4807412F4007FC2F304
:102700004020C4F3002406D012F4006F766818D07D
:1027100001228A40B26040EA4402002042EA0323D8
:1027200001F01F010D4A43EA8503803142F8213050
:1027300070BD0723DAE70423D8E70523D6E7032390
:10274000D4E7520542BF01228A40F260E3E700BFAE
:102750000600F00006001000020040000025845032
:102760002DE9F84F454D2E68002E5BD0444B4FF0BD
:102770000108D3E90520D968024321EA0209414A48
:102780004F464FF0000B924614691B695C4029EAE2
:1027900004047FBB2F602B68002301251F463A48A5
:1027A000D0F8042305FA03F1114211D09A0002F186
:1027B000A04202F55142116851B103F5A27150F8DF
:1027C00021101760C1F3042105FA01F112680C43CE
:1027D0000133082BE4D13CBB56B101260027284D1C
:1027E000EC68D5E905210A4324EA0204002C33D120
:1027F000BDE8F88F18EA070F0FD018EA090F0BF0A1
:102800001F0008BF00F180034FF0000108BF5AF815
:102810002330FFF757FE27EA08070BF1010B4FEAB9
:102820004808B6E73446B7E7154B59680029D3D0B6
:102830000D68164F002D38BF00258A68224002D04F
:1028400038464B689847002DC6D02B682946002B88
:1028500038BF00231D46F0E726420CD0296907F057
:102860001F00F94001F00101C1F10301C9B2FFF7F6
:1028700029FE24EA060401377600B7E77CD1005030
:10288000840900200025845000D0005038710000D9
:102890002DE9F0430025214C214E54F8048CDFF83B
:1028A000889085B0A84503D8002005B0BDE8F08326
:1028B000636A96E807001F6801AB83E807000C22F3
:1028C0001946384604F0B5F990B98FB1636A2169A9
:1028D0001B681A6991420BD19A69A169914207D884
:1028E000E169914204D962695B6932EA03030AD063
:1028F000276A67B10B4803F04FFF404080F311880F
:102900004FF0040002DFE36801351C44CAE7484683
:1029100003F042FF636A1F60F5E700BF3C0200005E
:102920008C7300006F7A0000987A0000054B1868DD
:10293000043B1B68092B03D1431E58425841704782
:10294000002070473401FF004A4A08B5136843F07D
:1029500002031360484B1B68092B01BF4FF0502343
:102960000022C3F81421C3F81821FFF7DFFF30B1AC
:102970000123424A1360A2F63822C2F878353E4B52
:102980001B68092B07D13E4B1B68012B1EBF012280
:102990003C4BC3F87825FFF7C9FF10B10E223A4B24
:1029A0001A60354B1B68092B04D10022374B1A6083
:1029B00001225A600022D30003F57F03D3F80013ED
:1029C000013108D0D3F800130132D3F80433B2F543
:1029D000807F0B60EFD12E4BDA69D1073BD52D4BB1
:1029E0001946D3F80024012AFBD1C3F80425D1F8F5
:1029F0000034012BFBD1264BDA69D20708D5DA69FE
:102A0000244922F00102DA61D1F80024012AFBD125
:102A10001A6A01320AD11A6A22F0FF0242F0200239
:102A20001A621C4AD2F80034012BFBD10022194B48
:102A3000C3F80425D3F80024012AFBD1BFF34F8F3C
:102A40001549164BCA6802F4E0621343CB60BFF32A
:102A50004F8F00BFFDE71B6A0133C0D00E4AD2F88A
:102A60008C3043F44063C2F88C300D4B0D4A1A6031
:102A700008BD00BFD0ED00E03001FF00384A005033
:102A80003401FF0000400050E4AE03500C470050FA
:102A90000080FF000090035000ED00E00400FA0504
:102AA000280000200090D003044B1A7922B901229B
:102AB00018601A710248704702487047A409002044
:102AC0000000AD0B0C00AD0B10B1012820D07047F9
:102AD0004FF05022D2F81834D2F81814C90311D587
:102AE00003F00303022B0DD1C2F8183500220D4B61
:102AF0001A601B6802224FF05023C3F804230122FE
:102B00009A6070474FF050230122C3F81825EDE773
:102B10000022054B1A601B684FF05023C3F80403D2
:102B200018607047045100500051005038B510B182
:102B3000012818D038BD4FF050230222012142F263
:102B400010751C46C3F80823154A10601268154A10
:102B50001160D4F81834DB03ECD5012004F02BF914
:102B6000013DF6D1E6E74FF05024002242F2107505
:102B70000D4BC4F808031A601B680C4B1860D4F89E
:102B80000C34D4F80C2403F00103D203D2D5002B6B
:102B9000D0D0012004F00FF9013DF0D1CAE700BF09
:102BA000045100500C50005000510050045000508F
:102BB000164B10B51A6852B1002018601B6801222C
:102BC0004FF05023C3F80823114B1B689847114B53
:102BD0001A688AB100221A601B684FF05023D3F89C
:102BE0001824D3F8181402F00302012A4FF002014E
:102BF00003D1C3F818159A6010BDC3F80813044B2D
:102C00000120BDE810401B68184700BF005100506C
:102C1000A409002004510050012303FA00F010F031
:102C2000FF0F12D04FF02003EFF3118183F31188CF
:102C3000BFF36F8F064AD36C23EA0000D06481F3A0
:102C40001188BFF36F8F034870470348704700BF78
:102C5000AC0900200000AD0B0400AD0B2DE9F041E4
:102C6000FF22002401260546DFF858E01448DFF86B
:102C70005880E3B24FF02001EFF3118C81F31188FB
:102C8000BFF36F8F22FA03F1C9070AD5DEF84C10A3
:102C900006FA03F7394201BF40463943CEF84C10DB
:102CA0002B708CF31188BFF36F8F404505D006FA67
:102CB00003F39A4304F10104DBD1BDE8F08100BFC6
:102CC0000200AD0BAC0900200000AD0B0E4B70B53F
:102CD00053F82040013053F82060A64200D870BD60
:102CE000D4E900352846984765B1EB6830B1002833
:102CF000B8BF4042FF28A8BFFF2018705A7842F0A2
:102D000001025A700834E8E7747500000248034A6B
:102D10000021121A03F0BFBFF8000020FC140020AD
:102D2000012208B5094B02201A70FFF7CFFF04F00B
:102D3000B4F90320FFF7CAFF00F024F903F005FD02
:102D4000034A137B23F00103137308BD3E130020D5
:102D5000780100202DE980483F4BA7B003F50067BC
:102D600087F3088883F30A880024E0233B4D4FF063
:102D7000010B85F82230EC772C766C76AC76EC760D
:102D80006B6A374E43F4E0236B626B6ADFF8E8A0AE
:102D900043F400236B62AC63EB68DFF8E0809BB226
:102DA00043F0BF6343F40833EB60FFF72BF9FEF702
:102DB00093FF4FF0FF33AB62EB62FFF75DFBFFF772
:102DC00017FA40F20113274DADF8243006ABAB6083
:102DD000CDE91F4403F0FCFF2046FFF777FF0120F9
:102DE000FFF774FF00F0A0FC1F4B6E624FF400620F
:102DF0001E49059330465346CDE9034BCDE90144C6
:102E0000009400F08FF8737B814623F00403304672
:102E1000737304F0B0F80F234FF4A072CDE90243AE
:102E20001349144B4046CDE904B4CDE9005400F0F9
:102E300079F898F80D30524623F0040388F80D30E5
:102E400005F1180349463046C5E90633C5F80C803C
:102E50002C756F60FEF72CFF401E002000ED00E097
:102E600078010020FC090020CB7A0000001500202A
:102E7000001D002041300000212D0000F80000203E
:102E800070B50E4B0E4CA34201D3002070BDD3E9A8
:102E9000030141EA000212F003020BD19D685A615E
:102EA000AA4201D11C33EEE75E6901320E6059611E
:102EB0000144F5E76FF01500E8E700BFA40000202B
:102EC000A4000020D3B50C4616461F464FF0200341
:102ED000EFF3118183F31188BFF36F8F43695BB107
:102EE00023601B684361836901338361002081F3A0
:102EF0001188BFF36F8F11E056EA070203D16FF01C
:102F00000B002360F3E70246CDE90067083000F0CC
:102F100087FA18B9024B9B685B69236002B0D0BD89
:102F2000FC0900202DE9FF410E9E00F158050673B3
:102F30000426C0E916550025044646730D9EC0E9D7
:102F400006558673D61D0C9A26F00706C0E9191699
:102F50008560C573C56602920B9A01EB0608019263
:102F60000A9A00924246FEF787FE054B65659B680C
:102F700003B11B6F4046236704B0BDE8F08100BF7A
:102F8000FC0900202DE9F0472A4E2B4DB04686B0B3
:102F9000B54205F1300410D300F0D0F94FF40049E8
:102FA00040F2E7360027244CDFF890A0444521D3B7
:102FB00006B0BDE8F04700F079BA54F8043C059338
:102FC00054F8103C049354F8143C039354F8183C00
:102FD000029354F81C3C019354F8203C009354E9AC
:102FE0000A2354E90C01FFF79DFF54F8303C5D655E
:102FF0002546CDE7636A5A1C0DD03046394623EA90
:10300000E373C9FB0301B94208BFB042256804D18C
:10301000284600F01FFB3034C8E74FF47A720023D3
:10302000FDF70CF902460B4605F11800514600F079
:10303000F1FCF0E7A4000020A4000020976F00003E
:1030400008B5094C4FF02002EFF3118382F3118889
:10305000BFF36F8F03F0EFFF2062FDF7D5FF00286D
:10306000F0D1FEF73FFEEDE7FC0900202DE9F3412A
:10307000044616461F464FF02003EFF3118883F3F2
:103080001188BFF36F8FC368354A6BB18068916850
:10309000884219D056EA070318D188F31188BFF384
:1030A0006F8F6FF00F000CE0916891F90E100133F3
:1030B000E36093682161A36088F31188BFF36F8F89
:1030C000002002B0BDE8F0812169F0E791F90E100F
:1030D00090F90E306FF07E029942A8BF19469142D6
:1030E000B8BF11468B422FDD00F0D2FA05462246CA
:1030F0004146CDE900671B4800F092F90028E0D076
:103100004FF02003EFF3118683F31188BFF36F8F25
:10311000236821699C420AD04BB193F90E30994241
:10312000A8BF19466FF07E039942B8BF1946A06840
:1031300090F90E30994209D16DB13146094800F03D
:10314000EBF86FF00A00BCE70025D0E700F0A0FA2A
:103150000028F2D1F0E786F31188BFF36F8FF0E714
:10316000FC0900203F13002038B583680446002B7B
:1031700036D01E4A9268934235D1DA7B013ADA732F
:10318000C368012B05D9013BC36000F08FF9002013
:1031900038BD4FF02003EFF3118583F31188BFF39F
:1031A0006F8F0169806890F90E30994201D000F06C
:1031B0006FFA204603F011FFA06058B190F90E207D
:1031C00022610022826703F0D6FE2946084800F0FB
:1031D000A3F8DAE7E06085F31188BFF36F8FD4E7D7
:1031E0006FF01500D4E74FF0FF30D1E7FC09002065
:1031F0003F13002038B504464FF02003EFF311854C
:1032000083F31188BFF36F8F03F0E7FE48B100220C
:10321000826703F0B0FE2946BDE83840044800F05C
:103220007BB8D4E902329A4218BF0133A360F2E7B7
:103230003F13002037B514461D464FF02003EFF32F
:10324000118183F31188BFF36F8F836843B1013B12
:10325000836081F31188BFF36F8F002003B030BD0E
:1032600054EA050306D181F31188BFF36F8F6FF025
:103270000F00F3E70246CDE90045024800F0D0F820
:10328000ECE700BF3F13002010B5084C23685BB18A
:10329000FEF76EF903462068054A03440021BDE8A5
:1032A0001040136103F0D7BE10BD00BF340A0020E8
:1032B000FC090020F8B504460D464FF02003EFF35B
:1032C000118683F31188BFF36F8F00224FF40047FC
:1032D00040F2E73000210D4BE7FB04011A610023A7
:1032E0004FF47A72FCF7AAFF002C094B09DC186036
:1032F000084B1D60FFF7C8FF86F31188BFF36F8F7F
:10330000F8BD0228B8BF0220F1E700BFFC09002089
:10331000340A0020300A002049B9EFF3058030B9A3
:10332000054B5A6A9B689A4201D0FEF71BBC81F399
:103330001188BFF36F8F7047FC0900204FF0200306
:10334000EFF3118183F31188BFF36F8F044B9A68F9
:10335000D37B013BD37381F31188BFF36F8F704729
:10336000FC09002038B502460C4803F0CDFD0C4D99
:10337000044600B9EC68AB684AB95A7BD20606D15C
:10338000A26922B9DA897F2A01D96B6238BD9C42D1
:1033900001D0FFF779FF6C62F8E700BF240A002034
:1033A000FC09002008B590F90D200146002A437B56
:1033B00004DA03F07F03437303F07EFD044B986847
:1033C000431A58425841BDE80840FFF7CBBF00BF41
:1033D000FC0900202DE9F041064614461D464FF039
:1033E0002003EFF3118783F31188BFF36F8F03F08E
:1033F00095FD87F31188BFF36F8F6B1C08BFB4F185
:10340000FF3F08D022462B4606F118000349BDE8CD
:10341000F04100F0FFBABDE8F08100BF976F0000F7
:1034200010B50C46064B11469868064B1860DDE94E
:103430000223FFF7CFFF2046BDE81040FEF792BB06
:10344000FC0900202C0A002070B50446183003F057
:10345000DCFD4FF02003EFF3118683F31188BFF3F7
:103460006F8F94F90D20637B002A05DA03F07F0348
:103470002046637303F020FD0B4D637BA86843F087
:1034800010036373031B58425841FFF76BFF86F329
:103490001188BFF36F8FAB68A34203D1BDE87040C2
:1034A00003F028BD70BD00BFFC09002010B54FF02F
:1034B0002003EFF3118483F31188BFF36F8F084B60
:1034C00000209A68D37B0133D373FFF74BFF84F35B
:1034D0001188BFF36F8FBDE8104003F00BBD00BF34
:1034E000FC09002070B590F90D200146002A437BAD
:1034F00004DA03F07F03437303F0DEFC174A4B7BCF
:10350000104663F07F034B7350F8283FD56A83421F
:1035100008BF0023002B38BF0023CBB191F90E6008
:1035200093F90E40A6420FD0A41B002C0CDD586866
:10353000C1E90030016059609068BDE87040431AED
:1035400058425841FFF70EBFAB4201D01B68E4E779
:10355000C1E900052960D162EEE700BFFC09002047
:10356000014670B54FF02003EFF3118483F3118807
:10357000BFF36F8F164B174A98681568A8421D460F
:1035800006D1FFF781FE84F31188BFF36F8F70BD02
:1035900000261660104A1268BAB1C2897F2A14D870
:1035A000427BD20611D10D4A90F90E601268964204
:1035B0000BDB0B4A904208D01A698A4202DCFFF703
:1035C00091FFDEE7521A1A61DDE700232B61DAE78B
:1035D000FC0900202C0A0020340A0020300A0020B8
:1035E000F800002070B490F90D30427B002B2DDBE9
:1035F000D3062BD183694BBB154962F07F0242731E
:103600000A4652F8284FCD6A944218BF2346002B31
:1036100038BF0023ABB190F90E6093F90E40A6427B
:103620000BD0A41B002C08DD5A68C0E900321060E2
:103630005860002070BCFFF795BEAB4201D01B68FC
:10364000E8E7C0E900252860C862F2E770BC70476F
:10365000FC09002010B54FF02002EFF3118482F333
:103660001188BFF36F8F427B510704D484F3118814
:10367000BFF36F8F10BD22F004024273FFF7B2FF59
:103680002146BDE810400148FFF746BE3F13002029
:10369000F8B504464FF02003EFF3118683F3118849
:1036A000BFF36F8F437B49B2DA0638D18569002DAD
:1036B00035D103F07F03437303F0FEFB437B81733B
:1036C00063F07F0343731748034653F8287F9F42F4
:1036D00018BF3D46002D1A462B4638BF0023C76A47
:1036E000C3B193F90E50A94210D06D1A002D0DDD13
:1036F0005A68C4E9003214605C600120FFF732FEB2
:10370000012086F31188BFF36F8FF8BDBB4201D053
:103710001B68E5E7C4E900273C60C462EDE70020D0
:10372000A173EEE7FC0900200021044B084603F1D9
:103730002802C3E90A22FFF7BDBD00BFFC09002033
:10374000F8B54FF02003EFF3118483F31188BFF332
:103750006F8F1B498868437B03F07F03437303F03B
:10376000ABFB08468A68537B63F07F03537350F8C2
:10377000283FCE6A834208BF0023002B38BF0023B6
:10378000CBB192F90E7093F90E50AF420FD0ED1BF2
:10379000002D0CDD5968C2E900310A605A60012031
:1037A000FFF7E0FD2046BDE8F840FEF7DBB9B34285
:1037B00001D01B68E4E7C2E900063260CA62EEE7A6
:1037C000FC0900202DE9F04104460D4654EA0501AC
:1037D00004D1FFF7B5FF0020BDE8F0816FF00101D3
:1037E0000A1A4FF0FF3161EB0503012A73F1000360
:1037F0002ADA03F04AFC06194FF02003EFF3118890
:1038000083F31188BFF36F8F114F124BB8681860A4
:10381000FFF7C8FDB868104922462B46183000F063
:10382000F9F8BA684046537B43F010035373FEF730
:1038300099F903F02AFC301A66EB0601012871F1B0
:103840000003B8BF0020C7E76FF00106361AD3E7C0
:10385000FC0900202C0A0020976F000008B50B46D9
:10386000013308BFB0F1FF3F06D1084B9868FFF75E
:10387000EBFD4FF0FF3008BDFFF7A4FF4FF47A7364
:1038800080FB0323D00B40EA4340F4E7FC0900200F
:10389000014B9868704700BFFC0900202DE9F041FA
:1038A00004464FF02003EFF3118683F31188BFF332
:1038B0006F8F437B1A0705D586F31188BFF36F8F8F
:1038C000BDE8F08123F0200242F00801D20920D1A6
:1038D0004173A36813B1204603F0F6FA04F118000F
:1038E00003F093FB4FF0000804F15807A56DBD42AB
:1038F00000D0B5B90120FFF735FD104B9B68A342FE
:10390000DAD1EFF30583002BD6D13046FEF72AF942
:10391000D2E703F05F0343F00803437303F0CCFAEC
:10392000D7E7284603F0D0FA05F1180003F06DFB45
:103930002846C5F87880FFF755FED7E7FC09002038
:1039400008B50648064A0749121A03F099F9BDE876
:103950000840054A0549064803F092B900000020D6
:10396000F4000020D47A000000000000D47A0000A7
:1039700000000020034B1B680BB9FDF7F9BD0020C8
:10398000704700BF380A002030B5036868B10A4AA2
:103990005268904209D043B1D3E90421D0E90445EB
:1039A000121945EB0101C3E90421426813605A6012
:1039B0000023C0E9003330BD2C00002038B5134B84
:1039C0001C689C4208BF0024FFF7D4FF0546BCB129
:1039D000D4E90401401B61EBE571012871F100039A
:1039E00011DB6FF000420023824273EB010400DA26
:1039F0001046074B1B6913B19842A8BF184638BD43
:103A00006FF00040F5E70020F3E700BF2C00002036
:103A1000FC090020B3F1FF3F08BFB2F1FF3F2DE9E1
:103A2000F74F044692469B4673D081604FF02003C7
:103A3000EFF3118583F31188BFF36F8F6FF00103EC
:103A40004FF0FF32B3EB0A0862EB0B09B8F1000F3D
:103A500079F100011CDB3048D0E900105B1A62EB01
:103A60000002B3EB0A0662EB0B07012E77F10003AD
:103A7000BCBF01260027C4E90467284AD2E9003CFC
:103A800093421ED1C4E9002CCCF8004054602DE0D4
:103A9000FFF770FF1AF1010300934BF1000301934C
:103AA000DDE90023121843EBE073C4E90423E4E7E3
:103AB000B6EB080067EB09016345C4E90401E1D0F6
:103AC0001B68002BDED0D3E90489D4E9046746459E
:103AD00077EB0901ECDAB8EB060069EB0701C3E903
:103AE00004015968C4E900310C605C6013689342BA
:103AF0000BD09C4209D1FFF761FF18B1084B1B693D
:103B0000834202D00021FDF701FD85F31188BFF348
:103B10006F8F03B0BDE8F08FF80100202C0000206B
:103B2000FC0900202DE9F74F0646FFF719FD4FF07D
:103B30002003EFF3118483F31188BFF36F8FDFF855
:103B4000B0A02A4D5146DFF8ACB02E60D5F800C0C9
:103B5000DBF800006246DAE90089D3175845CDE961
:103B600000230DD060B1D0E90467B445BB411DDA34
:103B7000009BB6EB030C019B67EB0306C0E904C690
:103B80000026009B2E6013EB0802019B43EB090308
:103B9000C1E90023FFF712FF3146FDF7B7FC84F3BC
:103BA0001188BFF36F8F03B0BDE8F08F00220023B0
:103BB00018EB060849EBE679C0E90423ACEB0606EE
:103BC000CAE900892E60FFF7DFFE84F31188BFF396
:103BD0006F8F836898474FF02003EFF3118483F3CE
:103BE0001188BFF36F8F0249B0E700BF380A002089
:103BF000F80100202C00002010B54FF02003EFF357
:103C0000118483F31188BFF36F8FFDF7B1FC064B6E
:103C1000D3E90023121843F1000384F31188BFF3A2
:103C20006F8F1046194610BDF801002010B50C4CDE
:103C3000236813B10B4B1B682BB900F0BBFA30B9EA
:103C40000122084B1A6001230020236010BD0138B7
:103C5000062801D9044810BD044B53F8200010BDBC
:103C60003C0A0020400A0020FE8FFFFF8C750000F8
:103C7000BFF34F8F0549064BCA6802F4E062134355
:103C8000CB60BFF34F8F00BFFDE700BF00ED00E04A
:103C90000400FA054FF0FE33002130B4064A074D08
:103CA000074C2B6013602360064A074CEB60636887
:103CB000C2F8001530BC1847041484500014845016
:103CC000081484500000845034000020024BD0E9D6
:103CD0000012C3E900127047340000202DE9F043C0
:103CE000154CDFF85C80002818BF0446206883B0BC
:103CF00040451DD016460D4620464FF4DE7104F1B6
:103D0000040900F09BFE04F58C77484600F03EF96C
:103D1000384601F075FA4A4638462B460749009660
:103D200001F080FA08B9C4F8008003B0BDE8F08360
:103D3000002003B0BDE8F083401300200D400000D8
:103D4000A5BCC95AF0B50D4C0D4E002808BF204641
:103D5000076883B0B7420ED100261D4600F58C706F
:103D600033460096144601F0ADFA002818BF3446D9
:103D70002C6003B0F0BD0348FBE700BF40130020F8
:103D8000A5BCC95AE88FFFFF10B5044630B163687F
:103D9000DB0602D500232360636010BD024B03489D
:103DA0005B689847F3E700BF34000020A875000067
:103DB00068B143683BB1DB0607D5BFF35F8F0023D3
:103DC00003601846704703487047034870476FF414
:103DD000E0407047EA8FFFFFE98FFFFF10B5044610
:103DE00020B1002211232260636010BD0148FFF75B
:103DF00051FFF6E7D0750000A0B1436883B1DB0640
:103E00000CD50122D0E8EF3FC0E8E12F0029F9D11D
:103E1000012BF7D0BFF35F8F002070470348704736
:103E2000034870476FF4E040704700BFE98FFFFF21
:103E3000EA8FFFFF2DE9F041144C0268C368D0E916
:103E40000156C4E90263C4E90025114B0E684868B5
:103E5000104DC3E90060D1E902760869D5F8141164
:103E6000C3E902761861CB060DD5002305F58870ED
:103E7000C5E94433C5E96D339047236805F5DA7029
:103E8000BDE8F0411847BDE8F08100BF44000020C4
:103E900054000020401300202DE9F043202B1D4644
:103EA0000646894690468BB026D8DBB202AF316811
:103EB0008DF804908DF8053006F1040921B94846C3
:103EC00000F062FE044640B90123022248463360F6
:103ED00001A900F06DFE044638B13846202100F0FB
:103EE000ADFD20460BB0BDE8F0832A46414648466A
:103EF00000F05EFE0446F0E702AF194610460023CC
:103F00003A4601F0D3FA04460028E6D12023B84609
:103F10001D46CCE7F0B5D0F8F430A7B0002BD8BFE1
:103F200002AE2CDD05460023D0F8084102AE019315
:103F3000A4F101073146D5F8F8409022D0F8FC00F2
:103F400001ABB7FA87F7A0477F09044610B9019B78
:103F50003BB9A7B13046902100F070FD204627B054
:103F6000F0BD014632462846FFF796FF50B9D5F816
:103F70000031019A1344C5F80031002FEAD16FF0E7
:103F80003C04E7E70446204627B0F0BD70B50025A5
:103F9000044629461422C0F8F450F83002F07BFEA3
:103FA000164B04F586761B6830469847204640F845
:103FB000045B00F0CFFD124B30461B689847D8B920
:103FC000D4F8F430AB4211DC0121202503EB83024D
:103FD00004EB8202C2F8FC000A480B44C2F8045108
:103FE000C2F8F800C2F80811C4F8F430064B3046A5
:103FF000BDE870401B68184770BD00BF98000020E6
:104000009C000020514A0000A00000202DE9F0474C
:10401000202A88B078D83E4B00F5867904461B6884
:104020004846174688469847054640BB40F2011669
:10403000D4F8F430002B63D02046FFF76BFF054621
:1040400000285FD1D4F8F430002B07DDD4E940021A
:10405000904203D3D4F80821012A14D0013EE9D1BB
:104060006FF03B056E463046202100F0E7FC294BFF
:1040700048461B689847002818BF6FF01D05284662
:1040800008B0BDE8F0871F28E8D96E4629462022EF
:10409000304604F1040A02F0FEFD3146504600F0BD
:1040A0008FFD05460028DED1504600F067FD5046E2
:1040B00000F050FD2946504600F066FD05460028F8
:1040C000D1D150462022314600F072FD054600282D
:1040D000C9D1034632462021304601F0E7F90546B2
:1040E0000028C0D1D4F8F4303A46002BC8BF0023D2
:1040F00040463146C8BFC4F8003102F0C1FDB2E706
:104100006FF03F056E46AEE76FF03B05B7E700BFC7
:104110009C000020A0000020002130B58DB0282296
:1041200002A8019102F0B7FD02A801F0E7F90446E8
:1041300010B120460DB030BD184D4FF0FF3128684A
:1041400000F03AF90446C0B9002000F065F900BB60
:10415000134A02A901A800F063FC0446012000F004
:104160005BF990B9286800F02FF90028E1D00D48DC
:10417000FFF790FD20460DB030BD0B48FFF78AFDDC
:10418000012C08BF0524EDD0DEE70848FFF782FDCB
:10419000E8E70748FFF77EFDDAE700BF940000205C
:1041A000BC0A00204C760000F47500002C7600005C
:1041B0000C76000010B582B000F054F828B100F081
:1041C000A3F80324204602B010BD00F06FF8D0B968
:1041D00000F022F9D8B91E4B1B681B0EF02B0AD138
:1041E0001C4A1D4B12689A4229D000F03DF8072462
:1041F00000F08AF8E6E7062400F036F800F084F8CC
:10420000204602B010BD0424204602B010BD00F0CC
:104210002BF800F079F8FFF77FFF044658B9024603
:104220000146FFF75BFD30B968220C4901ABFFF78F
:1042300089FD0028C6D00524204602B010BD01200B
:1042400000F0EAF80028E2D1054B1860E3E700BF70
:1042500028198450241A84500000E020540A0020B9
:104260000C1A84500020704700207047430503D586
:104270004FF0FF32024B1A60024B1860704700BFCC
:1042800008118450081A8450014B1860704700BF11
:10429000041A845008B100F06DB84FF475007047EF
:1042A00008B100F04FB84FF47500704710B51148D1
:1042B00000F06EF800B110BD0F4800F069F800285A
:1042C000F9D10E4C204600F063F80028F3D10C4BD6
:1042D0000C481C6000F05CF801460028EBD100F0AF
:1042E0002DF8044608B1204610BD00F077F82046AE
:1042F000FAE700BF90000020840000208C0000201E
:10430000940000208800002008B5084800F04AF812
:10431000074800F047F8074800F044F8064800F066
:1043200041F8BDE8084000F00BB800BF9000002045
:10433000840000208C0000208800002000207047AE
:10434000704700BF0246074803681342FCD021B102
:10435000054B06481B680B600360054B00201A6084
:10436000704700BF001A8450041184500811845013
:10437000081A8450024604490B681A42FCD0034BC9
:1043800000201A60704700BF001A8450081A845039
:1043900008B5034B02681B6810689847002008BDE9
:1043A0004400002008B5034B02685B68106898471A
:1043B000002008BD44000020024B02689B68106882
:1043C000184700BF4400002008B5034B0268DB68B3
:1043D00010689847002008BD4400002070B5094CC3
:1043E000094D2069AB68984718B1084B08485B68CD
:1043F00098470021074AEB6811602069BDE87040CA
:10440000184700BF54000020440000203400002062
:1044100064760000DC0C002070B51A4D1A4E04467C
:10442000B26828699047F0B95CB1184C2368ABB109
:10443000012B1AD0013B23602869F36898470020BC
:1044400070BD124C216839B90120114B114AC3F8D3
:1044500000051368002BFCD101312160F368286945
:104460009847002070BD0C4870BD0A4A1368002BA5
:10447000FCD1074A6FF07E40C2F80035FFF704FF19
:104480002368D7E75400002044000020DC0C002003
:104490000000845010198450E98FFFFF014B1B6806
:1044A000184700BF44000020014B9B68184700BF1D
:1044B00044000020014BDB68184700BF4400002087
:1044C0002DE9F843002878D00C46002975D01D4608
:1044D000002B72D006461AB1012200232A60036025
:1044E0002B68002B65D02946204601F003F90746CA
:1044F00000285FD12146286801F0DEF80746002831
:1045000058D12B68082B67D0042B68D0A3F1020880
:10451000B8FA88F84FEA581801239C46314A3249C4
:10452000136010460B60943AC0F800C0636A1360D1
:1045300011688B42F8D14FF000092C4B4FF0FF303F
:10454000C3F80090FFF792FE6FF01B02284B48461D
:104550001A60FFF799FE274A274BC2F800801868B7
:1045600040F48060FFF790FE0A22244B1A60089AFC
:104570002369012A616A24D0214AA2FB03231B0973
:10458000012203FB01F303EB43031E49DB039B09F9
:104590000B60164B38461A6033682A6823F07F4355
:1045A00043EA026333602A6843EA02233360BDE8CA
:1045B000F883154F3846BDE8F883144F3846BDE8F8
:1045C000F8834FF47F03D3F80C2C013202D0D3F8D8
:1045D0000C3CD1E71623D3E74FF003089CE74FF0DC
:1045E000020899E7C4118450401184502C11845062
:1045F000001184500C118450041A845038118450D6
:10460000ABAAAAAAD8118450310CF100350CF100E4
:10461000F0B40024C9002646274601F1FF3C06E01D
:104620009F4215D00126654518D82C461F466309C0
:1046300050F8233004F01F01CB401F2904F101057D
:1046400018BF03F00103002CEAD101263546ECE740
:1046500001369642E7D10348F0BC70470020F0BC19
:10466000704700BF360CF10000285FD02DE9F04103
:104670004C1EB4F5047F26D22BB322B3CC00012B01
:1046800004F1FF3E2FD000218C460F460D4603F16A
:10469000FF384C0950F8244001F01F06F4401F2E4B
:1046A00018BF04F0010421B90125AC46294627466C
:1046B000EFE7AB4213D0A74201D10CF1010C454505
:1046C00004D1624502D21A48BDE8F0813C4601316E
:1046D0008E4505F10105EAD20020BDE8F0810025F4
:1046E0004FF0010CF3E70026B446374631464B093C
:1046F00050F8233001F01F05EB401F2D18BF03F0C9
:10470000010339B15FB99C4501D0634608E06346B7
:10471000013605E0012631469C460127E7E73E4683
:10472000B242D0D30131A142F6D1D5E7004870475B
:10473000370CF1002DE9F04F8DB0189E07460C465E
:10474000179D002E4CD1D1F810B000211D60169B92
:104750001960002A00F022819C4A9D4B1168626A10
:104760001B689A4247D10A2945D1FB780493042358
:10477000B8460293974BA3FB0B234FEA930A0AEB2D
:104780004A0305F108020392ABEB430A169BC3F8F8
:1047900000B0BBF1000F00F0C7805D464FF000098C
:1047A000039E00F0B7FF00230593B8F1000F00F05F
:1047B000E980002C00F0E680049B002B00F0E080F4
:1047C000204604A900F096FFB8B1834B984240F010
:1047D000AB80029000F09EFF02980DB0BDE8F08F14
:1047E0004FF47F01D1F80C0C01300CBF4FF4047B67
:1047F000D1F80CBCA9E77948EBE72146049800F012
:104800005BFF0028E1D1049F082F00F0BD80042F3A
:1048100000F0BC80A7F10207B7FA87F77F090123F0
:1048200019466F48036040F8843C6D4B6848196036
:10483000636A036000688342F7D10023694A4FF03E
:10484000FF301360FFF712FD00236FF01B011846C5
:10485000654B1960FFF718FD6449654B0F601868D8
:104860005C4F40F48060FFF70FFD0A210122574B97
:10487000604819602169636AA7FB01C1090903FB4C
:1048800001F303EB4303DB039B090360554B05A8CE
:104890001A600499D8F800200B0243EA016322F061
:1048A0007F421343C8F8003000F0F6FE059B03F08A
:1048B0001A03034338D1504BA7FB05271A6814335A
:1048C000069253F8102CB9EB970F079253F80C2C63
:1048D000089253F8082C099253F8042C0A921B688A
:1048E0000B9302D1BAF1000F41D1182230460DEBE3
:1048F000020100F041FE183D183609F10109002DB2
:104900007FF44FAFBBF5047F5DD8039D5946284621
:104910006269FFF77DFE00284BD00023169A1360D2
:104920002D4B98423FF455AF049D082D34D0002202
:1049300004AB214640466D0000920495FFF7C0FD90
:104940002E4B984224D000287FF443AFD8F80020A3
:10495000130A03F47F03134323F07F43C8F80030A6
:10496000029B013B02937FF411AF002031E73046F8
:10497000524606A900F000FEA5EB0A055644BCE726
:104980001E4822E71E4820E7032748E7022746E79C
:10499000236A002B3FF41DAF1A481AE70122214673
:1049A0003846009604ABFFF78BFD00283FF4DFAEDE
:1049B0000FE74FF4806359462846A269FFF754FE7B
:1049C0000028AAD1D1E7169B1D60ADE738118450AD
:1049D00030118450ABAAAAAA020CF100300CF100ED
:1049E000C41184502C118450001184500C11845037
:1049F000041A8450D811845014118450310CF100E1
:104A0000350CF100320CF100002330B4DDE9034530
:104A10000493029BCDE9024530BCFFF78BBE00BF7B
:104A200010B5012486B005ABCDE901240093002226
:104A300004ABFFF77FFE06B010BD00BF38B131B147
:104A4000002201440346013081421A70FAD17047B6
:104A50002DE9F04188B00592002968D01C46002B52
:104A600065D01546002A62D0DFF8E4800E46D8F8FB
:104A700000004FF0FF31FFF79FFC00284CD10020D1
:104A8000FFF7CAFC002843D12A4800F037FDE8B1FF
:104A900001204FF0FF37FFF7BFFC002834D14FF45F
:104AA00008712548FFF7CAFF04212448FFF7C6FF15
:104AB00020482821FFF7C2FFD8F80000FFF784FC48
:104AC00000282DD1384608B0BDE8F0811A4907AB5F
:104AD000024603900291009316491848019405ABD1
:104AE000FFF792FF0028D3D12368AB42D0D30799B8
:104AF00007462A463046083100F03EFD0120256079
:104B0000FFF78AFC0028CAD00D48FFF7C3F8C6E7B4
:104B10000C48FFF7BFF8B7E70B48FFF7BBF8AEE765
:104B20000A48FFF7B7F8384608B0BDE8F0814FF003
:104B3000FF37C7E7040F0020E40C0020E00C002042
:104B40002C7600000C760000F475000084760000DE
:104B50009400002010B5044628B12046BDE810405E
:104B6000F02100F00DBD0448FFF794F82046BDE8A1
:104B70001040F02100F004BD9C76000010B1F0213F
:104B8000FFF75CBF704700BF08B561B1012907D1CD
:104B9000022100F039F8002818BF6FF0360008BD78
:104BA0006FF0360008BD012100F02EF8F3E700BFDA
:104BB00008B500F06BF8002818BF6FF0360008BD8C
:104BC00070B5E8B10E46D9B1044600F031F805469B
:104BD000B0B92368012B0BD0022B01D0284670BD41
:104BE00030461C2204F1080100F0C6FC284670BDC6
:104BF0003046202204F1080100F0BEFC284670BDBA
:104C00006FF03605EAE700BF78B138B50D46F02100
:104C1000044600F0B5FC402320462560E36500F023
:104C2000BFFD003818BF012038BD0120704700BF0C
:104C300070B5056EA4B0044604AEE5B901220023A8
:104C4000626030462946CDE9003302AA00F070FDCB
:104C500010B1012024B070BD2A46204602A900F000
:104C6000C9FD0028F5D1204600F0EEFE0028F0D165
:104C7000206624B070BD802D2A46304628BF802291
:104C800004F1640100F078FC256ED7E7002855D0C8
:104C9000F0B51546A5B0B2B10E4651B30446D0E901
:104CA00017301A1AB2FBF3F703FB1727AF4228BFDE
:104CB0002F46002F44D1834208D0B5FBF3F703FB06
:104CC00007F7CFB96DBB284625B0F0BD802B28BFB4
:104CD000802304F164011A4604A800F04DFC00236F
:104CE000CDE9003304A8E16D02AA00F021FD0028FF
:104CF00033D0012025B0F0BD002339463046CDE940
:104D0000003302AA00F014FD0028F2D13A462046F2
:104D100002A900F06FFD0028EBD1ED1B3E44002DF1
:104D2000D1D0206E2A461930314604EB800000F0C5
:104D300023FC226E00202A442266C5E7012070472A
:104D400004F1640318443A4600F016FCD4E9173025
:104D500038443E44ED1B2066ADE72046E26D02A9D3
:104D600000F048FD0028C4D1E36D2066A5E700BF30
:104D70002DE9F04FB2F5C07FAFB000F22C81DFF823
:104D80006C9290460C464FF4D07200218246484601
:104D900001F081FF11A800F097FE00222023214698
:104DA000A9F8102098FA98F4424609F11800A9F8D9
:104DB000124089F8173001F063FF8022874B884941
:104DC000884C09EB0800CDE902410276019311A855
:104DD00003F10C3301A9049300F08CFE0746002870
:104DE00040F0D88008F1190805AE0DF1240B10220F
:104DF0000021304601F04FFF45467B4C9DF81420C2
:104E000014F8103C9DF815C014F80F1C9DF81600FE
:104E1000534014F80E2C8CEA010C50409DF81710EA
:104E200014F80D2C9DF818E0514014F80C2C8DF856
:104E300014308EEA020214F80B3C9DF819E08DF84C
:104E400015C08EEA030314F80ACC9DF81AE08DF819
:104E500016008EEA0C0C14F8090C9DF81BE08DF876
:104E600017108EEA000014F8081C9DF81CE08DF85D
:104E700018208EEA010114F8072C9DF81DE08DF82A
:104E800019308EEA02029DF81E3014F806EC8DF8F7
:104E90001AC083EA0E038DF81B008DF81C108DF8E4
:104EA0001D208DF81E309DF81F1014F8053C9DF84C
:104EB00020C09DF821004B4014F8042C14F8031C6A
:104EC0008CEA020241409DF822C014F8020C9DF8C1
:104ED00023E08CEA000014F801CC8DF81F308EEA34
:104EE0000C0C8DF820208DF821108DF8220033460F
:104EF0003246012111A88DF823C000F015FE102DB7
:104F000094BF6D1B103D002863D11034002D7FF439
:104F100075AF0BEB07001022314601F0B1FE99F896
:104F2000033010370133202F89F803307FF45FAF4F
:104F30008022594611A800F0DDFD074668BB5446A3
:104F40000AF120050DAB1A46012111A800F0ECFD75
:104F5000074610BB102220460DA9144401F090FE14
:104F6000AC42EFD111A800F0BFFD4FF4D0711F4843
:104F7000FFF764FD58462021FFF760FD01A81021CE
:104F8000FFF75CFD30461021FFF758FD38462FB083
:104F9000BDE8F08F05AE0DF1240B11A800F0A4FDC3
:104FA0004FF4D0711148FFF749FD58462021FFF713
:104FB00045FD102101A8FFF741FD30461021FFF704
:104FC0003DFD50462021FFF739FD38462FB0BDE8A2
:104FD000F08F0746E1E76FF03707F6E700010203BD
:104FE00008090A0B040506073C0F00202C0F0020BF
:104FF0002DE9F0412022044688B00D466846002184
:10500000A6186F4601F047FEE27B0132D2B2E2738E
:10501000002A4DD1A27B0132D2B2A273002A47D11D
:10502000637B0133DBB26373002B41D1237B0133FC
:10503000DBB22373002B3BD1E37A0133DBB2E372A3
:10504000002B35D1A37A0133DBB2A372002B2FD111
:10505000637A0133DBB2637253BB237A0133DBB271
:1050600023722BBBE3790133DBB2E37103BBA3797A
:105070000133DBB2A371DBB963790133DBB2637156
:10508000B3B923790133DBB223718BB9E3780133F0
:10509000DBB2E37063B9A3780133DBB2A3703BB931
:1050A00063780133DBB2637013B923780133237063
:1050B0003B4622460121304600F036FD804600285E
:1050C0002AD1103708AB9F429ED100992B686A689D
:1050D0004B40019930464A40AE68029900937140B6
:1050E000EB68039E019273402A69049E0291564028
:1050F00005996A6903935140D5E90623069D0591F8
:105100005540079A694653408022CDE906530496DC
:1051100000F0F0FC804638B168462021FFF78EFC95
:10512000404608B0BDE8F081102220460DEB020198
:1051300001F0A6FDF0E700BF2DE9F84304468069C1
:10514000B0F5C07F53D81D46C0F5C073AB424ED3F7
:10515000C5F5C073181A9042164648D3DFF89C80F4
:105160004FF4C0720F464046002101F094FD4146C5
:10517000D4F89430A269D4F898009847002839D11F
:10518000D4F8189045B12A464146D4F89430D4F862
:105190009800984770BBA94407B1C6B917494A4659
:1051A0000846FFF7E5FD054638B14FF4C0711348D6
:1051B000FFF744FC2846BDE8F88320460F49FFF777
:1051C00017FF05460028F0D101232361EDE739469A
:1051D000324608EB090001F053FD0849B1444A4644
:1051E0000846FFF7C5FD05460028DED1E5E76FF06C
:1051F0003705DFE76FF03305DCE700BFCC10002098
:1052000010B5A4220021044601F045FD4FF0FF3205
:10521000034B226104F19C001B68BDE81040184755
:10522000980000202DE9F043054685B00F4616464C
:10523000684610220021994601F02DFD1F4B05F113
:105240009C0840461B68984720B10446204605B09C
:10525000BDE8F08305F12004204600F035FCAA6982
:10526000C5E9257602BB20222E69AA61002E23DB28
:105270004FF6F073204669468022EB6100F03AFC5D
:10528000044630B93346494628460C9AFFF754FF86
:1052900004460B4B40461B689847002818BF04463D
:1052A000204605B0BDE8F0832E69002EE0DA172A0B
:1052B00002D8531C5E08DBE70026D9E79C000020DB
:1052C000A00000202DE9F04FB2F5806F8DB0DDF821
:1052D000588000F2E480B8F5807F00F2DD8004465B
:1052E00015460E462022002104A81F4601F0D3FCDB
:1052F0006C4B04F19C0948461B689847834600287C
:1053000040F093802269E3699A4200F392806369D6
:10531000002B40F08E80B8F1000F40F0A980DFF83C
:1053200088A16F46002D00F098806F4604F1200898
:105330000EE0102DAB4628BF4FF0100B304639461B
:105340005A4601F09DFCB5EB0B055E4400F08580EC
:10535000E37B0133DBB2E373002B4DD1A37B01333D
:10536000DBB2A373002B47D1637B0133DBB26373E2
:10537000002B41D1237B0133DBB22373002B3BD1C4
:10538000E37A0133DBB2E372002B35D1A37A013328
:10539000DBB2A372002B2FD1637A0133DBB26372CD
:1053A00053BB237A0133DBB223722BBBE379013386
:1053B000DBB2E37103BBA3790133DBB2A371DBB9C9
:1053C00063790133DBB26371B3B923790133DBB2A3
:1053D00023718BB9E3780133DBB2E37063B9A3784F
:1053E0000133DBB2A3703BB963780133DBB2637086
:1053F00013B92378013323703B46224601214046EE
:1054000000F092FB8346002893D0DAF8003048463B
:1054100098470346202104A8002B18BF9B46FFF79E
:105420000DFB38461021FFF709FB58460DB0BDE8CB
:10543000F08F4246394600232046FFF77DFEDFF815
:1054400068A000283FF46DAF4846DAF8003098476E
:10545000834600283FF465AFE7E7204604A9FFF73D
:10546000C7FD83460028D0D1236901332361CCE7EF
:105470004246394604A8FFF77BFC834618B16F46C5
:10548000DFF824A0C1E7204604A9FFF7B1FD834659
:1054900000283FF444AFF2E76FF0370BC5E76FF039
:1054A000350BC2E79C000020A0000020F8B51C4688
:1054B000054611480E461746FFF74CFB21460E489D
:1054C000FFF762FB044620B10B48FFF757FB20466D
:1054D000F8BD324629460848FFF76AFB0446002813
:1054E000F2D139460448FFF76BFB04460248FFF748
:1054F00045FB2046F8BD00BF4C1200201C2330B5F0
:1055000083B001A90446019300F03EF8054638B97E
:10551000019B1C2B07D0164D20461C2100F030F8B3
:10552000284603B030BD0121D4E90032003B18BF4A
:105530000123E1610AB143F00203A26832B9E268D3
:1055400042B9C4E908328BB90A4DE5E7E26843F095
:1055500004033AB10022284643F00803C4E90832A4
:1055600003B030BD1546C4E90832D9E71546D7E780
:10557000370CF0000E0CF00001F06BBB01F08BBBA0
:105580000A46002101F087BB002866D0002964D0BC
:105590000B681C2B61D14FF47F033B4AD3F8101CDE
:1055A00091425CD0D3F8102C013258D0D3F8102C93
:1055B0004FF47F030260D3F8141C344A914260D048
:1055C000D3F8142C01325CD0D3F8142C4FF47F03A1
:1055D0004260D3F8182C12F5947F4FD0D3F8182CD2
:1055E00001324BD0D3F8182C4FF47F038260D3F8EC
:1055F0001C1C274A91423ED0D3F81C2C01323AD0D1
:10560000D3F81C2C4FF47F03C260D3F8002C703207
:105610002FD0D3F8002C01322BD0D3F8002C4FF42C
:105620007F030261D3F8042CAF3220D0D3F8042CCE
:1056300001321CD0D3F8042C4FF47F034261D3F81D
:10564000081C144A91420DD0D3F8082C013209D01D
:10565000D3F8083C8361002070470120704740F672
:10566000FC02A5E740F237338361002070475122E6
:10567000E2E79022D3E742F60412C3E740F6D8628D
:10568000B2E742F2D002A1E7FCF8FFFFD020FFFF13
:105690000429FFFF37F3FFFF014608B54FF4806090
:1056A000FEF7FEFD00230249024A0B60136008BDAD
:1056B000C81184502C1184500138072805D8DFE820
:1056C00000F00A0E04120404040609487047CB686F
:1056D00000204B6270470B6800204B6270474B689C
:1056E00000204B6270478B6800204B62704700BF00
:1056F000310CF1000B6802E0082B0B6006D8026A3F
:1057000013424FEA4303F7D0002070470048704728
:10571000310CF10000230449044A0B604FF480600F
:105720001360FEF7A3BD00BF2C118450C411845038
:105730002DE9F041002682B0B0F1005F8DF80760DE
:10574000099E27D30C460444B4F1804F054621D866
:105750001746984601220DF1070300F00FFA0446A0
:10576000C0B99DF807303D603B71AEB1B8F1000F94
:1057700009D00246089940460DF1070300F0FEF9F2
:1057800040B99DF807302046C6F80080337102B05A
:10579000BDE8F0814FF47504204602B0BDE8F08109
:1057A000E8B110B50468012C04D0022C10D044B12B
:1057B0000C4810BD20220C490830FFF7DDFE002008
:1057C00010BD142209490830FFF7D6FE204610BD4F
:1057D000202207490830FFF7CFFE002010BD4FF40C
:1057E000730070470100F300E0760000AC76000023
:1057F000C07600002DE9F041002900F0EF8004465A
:10580000002800F0EF80036817460E46002B00F0DA
:10581000B980013B012B00F2CD804FF0FF3173487E
:105820004FF00208FEF7C8FD002840F0B5800020C8
:10583000FEF7F2FD0546002840F0B8806C4A136878
:10584000002BFCD16B480368002BFCD14FF0FF30DC
:10585000FEF70CFD684B186820F04000FEF714FDC1
:1058600001230720654A66491360086042F8543CEA
:10587000A16C644B483A1960E16C116043F80C8CE0
:10588000236863B1013B012B18D8616A5E4BA2F516
:10589000BC721960216A1160E26943F8082CA169A1
:1058A0005A4B5B4A196061691160216943F8081C11
:1058B000E16842F8081CA26843F8102C554A1368A6
:1058C000002BFCD1002F59D063684020012B04BF6E
:1058D000514A13603168514A514B11601F60FEF705
:1058E000D9FC05464B4A1368002BFCD1414A13688A
:1058F000002BFCD123685BB1013B012B16D8424B36
:10590000484A1968083B6162126822621B68E361B9
:105910003E4B3F4A1968083AA1619168103B6161AA
:10592000996821611268E2601B68A360012100236D
:1059300034483D4A0068A0641068E06442F80C1CDA
:1059400035483A49036002F5A0720B601368002BDA
:10595000FCD12A4A1360002D3AD1274B186840F039
:105960004000FEF791FC0120FEF756FD60BB1F488A
:10597000FEF72AFD10BB2846BDE8F08104222B4B20
:105980001A60AFE74FF0FF3118484FF00108FEF7FB
:1059900013FD00283FF44BAF2548FEF77BF90020AC
:1059A000FEF73AFD054600283FF448AF2148FEF7D0
:1059B00071F943E7204D2846BDE8F0811F48FEF706
:1059C00069F92846BDE8F0811D48FEF763F9CEE786
:1059D000102104F10800FFF7D3FDBEE7194D28465A
:1059E000BDE8F0814FF47305C5E700BF90000020CB
:1059F0001C198450201C8450041A84501818845098
:105A000000198450CC1784505C1684505016845072
:105A10004C1684501019845084168450281C8450CD
:105A20002C1C845058168450D0178450C8178450AA
:105A3000F47500000C7600000100F3004C760000C5
:105A40002C7600000300F30000283AD02DE9F04145
:105A5000D0E9062392FA82F893FA83FE026A436A37
:105A6000D0E9044112BA24BA1BBA04610262846A02
:105A7000826B4362C36BD0E9026509BA36BA2DBAAC
:105A8000C76A8660C560066B456B416194FA84FC09
:105A900019BA14BA436C026C3FBA36BA2DBA12BAAC
:105AA0001BBAC0E90C65C0E90E41C0F81880C0F807
:105AB0001CE0C0F828C0C762C0E910230020BDE880
:105AC000F0814FF47300704710B5044630B10022E6
:105AD0000123C4E91522C4E9173310BD0148FEF7BC
